:10000000F8FF002011040000CB0F0000CB0F000010
:10001000CB0F0000CB0F0000CB0F0000CB0F000078
:10002000CB0F0000CB0F0000CB0F0000CB0F000068
:10003000CB0F0000CB0F0000CB0F0000CB0F000058
:10004000CB0F0000CB0F0000CB0F0000CB0F000048
:10005000CB0F0000CB0F0000CB0F0000CB0F000038
:10006000CB0F0000CB0F0000CB0F0000CB0F000028
:10007000CB0F0000CB0F0000CB0F0000CB0F000018
:10008000CB0F0000CB0F0000CB0F0000CB0F000008
:10009000CB0F0000CB0F0000CB0F0000CB0F0000F8
:1000A000CB0F0000CB0F0000CB0F0000CB0F0000E8
:1000B000CB0F0000CB0F0000CB0F0000CB0F0000D8
:1000C000CB0F0000CB0F0000CB0F0000CB0F0000C8
:1000D000CB0F0000CB0F0000CB0F0000CB0F0000B8
:1000E000CB0F0000CB0F0000CB0F0000CB0F0000A8
:1000F000CB0F0000EF220000CB0F0000F122000028
:10010000CB0F00006D240000CB0F00008F240000F7
:10011000CB0F0000AB240000CB0F0000CD2400006B
:10012000CB0F0000CB0F0000CB0F0000CB0F000067
:10013000CB0F0000CB0F0000F52E0000F92E0000C1
:10014000032F0000CB0F0000CB0F0000CB0F0000EF
:100150007B270000BD2900003D2A0000852A000001
:10016000CB0F0000CB0F0000CB0F0000CB0F000027
:10017000CB0F0000CB0F0000CB0F0000CB0F000017
:10018000CB0F0000CB0F0000CB0F0000CB0F000007
:10019000CB0F0000DD2A0000CB0F0000A31F0000E2
:1001A000A71F0000F31F000013200000172000000D
:1001B000CB0F0000CB0F0000CB0F0000CB0F0000D7
:1001C000CB0F0000CB0F0000CB0F0000CB0F0000C7
:1001D000CB0F0000CB0F0000CB0F0000CB0F0000B7
:1001E000CB0F0000CB0F0000CB0F0000CB0F0000A7
:10040000FFFFFFFFFFFFFFFFFFFFFFFFFEFFFFFFFD
:100410004FF000004FF000014FF000024FF00003DA
:100420004FF000044FF000054FF000064FF00007BA
:100430004FF000084FF000094FF0000A4FF0000B9A
:100440004FF0000C62B602F073FCFEE70000000003
:100450002DE9F84C0FB48AB0DDE90C01CDE90401B7
:100460000B98C0F30A5040F2FF72904208D1002668
:100470000B98000305BF0A9800280224012412E00B
:10048000010007D10AA800F013FC0128A4BF002630
:10049000002408DA40F2FE310B9A61F31E520B92EF
:1004A000461A4FF0FF34002104A800F023FC054653
:1004B000169808B10021018035B9DDE90C23002030
:1004C000002100F057FC15D0002C15D536B2012EB6
:1004D00017D1DDE90A230020DFF8701300F04AFC91
:1004E00008D0012D0DD1DDE90A23DFF8641300F0F7
:1004F00041FC2ED1D749A6E1022C04D1DDE90A0145
:10050000A1E1012D59DB022D08BFDDE90C0100F04E
:100510009A81012C1BD10B9800280D9802D4002839
:1005200048D532E0002809D4002D43D14FF0FF31E7
:1005300004A800F0DFFB00283CD538E02DBB4FF0CD
:10054000FF3104A800F0D6FB00281ED519E0012DCC
:1005500009D10D98002836B202D4012E2ADA14E00F
:10056000012E12DA26E00D98002811D46DB94FF053
:10057000FF3104A800F0BEFB002844BF0B98002800
:1005800003D500204FF000415DE1002000215AE139
:1005900000F000FC2221016065B94FF0FF3104A892
:1005A00000F0A8FB002844BF0B98002802D50020CB
:1005B000A94948E10020A94945E10B98002848BF16
:1005C000002D08D500F0E6FB212101604FF0FF303F
:1005D0006FF0004137E1DDE90A010022002300F05D
:1005E000DFFB38BF00270BD3DDE90A0181F00041B2
:1005F000CDE90A014FF0FF3104A800F07BFB07466C
:10060000012E14D1DDE90A01954A964B00F0F0FB6A
:100610000DD2002400208F49CDE90601DDE90A232F
:100620004FF0804100F000FCCDE90A011FE0874D4A
:10063000DDE90A2300208C4900F0F6FB00222B465E
:1006400000F0C4FC00F036FDA0F12004204600F0CC
:1006500057FD02460B460020844900F0E5FB0246A8
:100660000B460020294600F0B1FCCDE906010FF24F
:10067000202000EB44100090DDE90A01DDE90623AB
:1006800000F054FD04460D46DDE90A23DDE90601CC
:1006900000F09CFC02460B462046294600F006FE70
:1006A000CDE90801DDE90823DDE9080100F0BCFB24
:1006B00082468B46CDE90A4500F01CFF52465B4658
:1006C00000F0B2FBDDE90A2300F030FD04460D46E0
:1006D00000206049DDE9062300F028FD02460B46B4
:1006E00000204FF0804100F09FFB22462B4600F097
:1006F0006DFCDDE9082300F097FB02460B46DDE9BF
:100700000A0100F063FC04460D46594A594B00F0BB
:10071000CDFDCDE90401304600F0F2FCCDE9060143
:10072000DDE90601009ED6E9002300F04FFCDDE97B
:10073000042300F04BFCCDE90401DDE90C23DDE9E5
:10074000040100F071FBCDE90201DDE902010022A4
:10075000494B00F04DFB64D3DDE902010122474B18
:1007600000F01EFB61D9DDE902010022002300F048
:100770003FFBDDE9022339BF002035490020334922
:1007800000F024FC00F096FC064622462B46DDE9EC
:100790000C0100F049FBCDE90201009AD2E9020107
:1007A0001446D4E9042300F011FCDDE90C2300F029
:1007B0003BFB2F4A2F4B00F037FBDDE9022300F013
:1007C00005FCCDE90201DDE90623009CD4E9000126
:1007D00000F0FCFBDDE90C2300F026FB04460D468F
:1007E000304600F08DFC02460B462046294600F0BC
:1007F0009DFC1F4A1F4B00F017FBDDE9022300F0B0
:10080000E5FBCDE90201169808B1068000260096A6
:100810000022104B02A800F0C1FE10B1012804D044
:100820000BE00020CDE9020003E000200B49CDE9F8
:10083000020100F0AFFA22210160002FDDE9020180
:1008400018BF81F000410FB0BDE8F08C0000E03F20
:100850000000E0BF0000F03F0000F0FF0000F07F6C
:10086000CD3B7F669EA0E63F000050400000903FD9
:10087000EF39FAFE422EE63F0000E0C00000E04003
:1008800010B582B000240094FFF7E2FD1CBD00000B
:10089000000000000000F0BF000000000000008029
:1008A00000000000000000800000000000000000C8
:1008B000000000C05294EEBF00000048204E51BE20
:1008C000000000F86467BCBC0000000000000000ED
:1008D000000000208133EDBF00000080B3DB14BEB8
:1008E000000000506706A3BC0000000000000000EC
:1008F000000000D0E9DCEBBF00000008C39259BE45
:1009000000000080B0D3B8BC000000000000000070
:1009100000000070F98FEABF000000C0A51028BEDB
:10092000000000E8BFC0B0BC0000000000000000F4
:1009300000000070284CE9BF00000060134B42BE6D
:10094000000000C03D20B8BC000000000000000016
:1009500000000050FA10E8BF000000C05FF62BBE98
:10096000000000905C71A7BC0000000000000000C7
:1009700000000020FCDDE6BF000000C0F8F154BE1E
:1009800000000018E9F6B9BC0000000000000000FB
:10099000000000D0C3B2E5BF00000070E43254BED6
:1009A00000000050DB06B4BC0000000000000000A6
:1009B00000000010EF8EE4BF00000020F36252BE82
:1009C000000000C02A879ABC000000000000000060
:1009D000000000B02272E3BF000000F0E8E056BE65
:1009E00000000028352DBDBC000000000000000004
:1009F000000000000A5CE2BF000000B0FA8E41BEB9
:100A000000000040AE6FBDBC000000000000000010
:100A100000000000564CE1BF000000F015CD5FBEA5
:100A200000000000141C90BC00000000000000004A
:100A300000000040BD42E0BF00000030F93457BE66
:100A4000000000E06C1E93BC0000000000000000ED
:100A5000000000E0F57DDEBF000000B08A535EBEFE
:100A600000000080DA77AABC00000000000000004F
:100A7000000000C09D81DCBF00000000FFA226BE78
:100A80000000006057E2B0BC000000000000000061
:100A900000000060F98FDABF000000580A8151BEE3
:100AA000000000F05F60B8BC000000000000000023
:100AB0000000000098A8D8BF000000607A7F45BE03
:100AC000000000D05433A3BC000000000000000070
:100AD000000000600FCBD6BF000000D091CB40BE1D
:100AE000000000406D1BA0BC0000000000000000E2
:100AF000000000A0FBF6D4BF00000098C5CE52BE97
:100B0000000000003A397EBC000000000000000038
:100B1000000000E0FE2BD3BF0000004073872BBE17
:100B200000000000926879BC000000000000000096
:100B300000000040C069D1BF00000058F16353BEFF
:100B400000000080438D7CBC00000000000000001D
:100B500000000080D85FCFBF000000181F8354BE84
:100B6000000000B03F42A2BC0000000000000000F6
:100B70000000008067FCCBBF00000060FAFF53BE9E
:100B800000000050E00DB8BC0000000000000000B4
:100B90000000000098A8C8BF000000607A7F35BE42
:100BA000000000C0543393BC0000000000000000AF
:100BB00000000000DC63C5BF00000058D6FF54BE33
:100BC00000000000396490BC00000000000000003C
:100BD000000000C0AD2DC2BF00000080A45915BEAA
:100BE000000000E0484BABBC00000000000000002B
:100BF000000000801A0BBEBF00000050BF3C5ABE70
:100C0000000000A0B364B6BC0000000000000000BB
:100C10000000008004D6B7BF00000040BBCF36BE46
:100C20000000008076CEA8BC00000000000000009C
:100C30000000008032BBB1BF000000402A0043BE6C
:100C400000000028C60CBDBC000000000000000031
:100C5000000000009473A7BF000000182B3B59BE92
:100C6000000000C0E55DA5BC000000000000000021
:100C700000000000EE4397BF000000A0E6C340BEA6
:100C800000000020958DB5BC0000000000000000B1
:100C90000000000000000080000000000000008054
:100CA00000000000000000800000000000000000C4
:100CB00030B4416801F00042012143681B031B0B63
:100CC000436004BF0368002B0ED003684468DD0F47
:100CD00045EA440444605B000360491EE302F4D526
:100CE00043681B031B0B436043681A43426008467A
:100CF00030BC70474268C2F30A5240F2FF7C624542
:100D000009D14168090304BF0068002801D101200E
:100D100070470220704743685B0004BF0368002BE4
:100D200023D040F233439A1A521A012A1DDB352A86
:100D300006DB416801F0004141600021016016E0DE
:100D4000012102F01F039940491E920607D542680F
:100D500011404A40426002681143002202E00268EA
:100D600011404A40026001B101E0002070474FF09D
:100D7000FF30704790420CD141EA030C50EA4C0C12
:100D800007D0994205D14FF4001C1CEB410F38BF2E
:100D900089427047014800F07BBD00001005FF1F2D
:100DA0004FF4001C1CEB410F94BF1CEB430F09E0F8
:100DB00041EA030C50EA4C0C52EA0C0C03D28B4271
:100DC00008BF8242704714BF99429042704750F862
:100DD000041B61B150F8042BD30744BFA9F10103F0
:100DE0009A18002342F8043B091FFAD1EFE7704735
:100DF0004FF4001C1CEB410F94BF1CEB430F09E0A8
:100E000041EA030C50EA4C0C52EA0C0C03D2994212
:100E100008BF9042704714BF8B42824270470268FD
:100E2000531C036011707047B0B581EA030C0CF0DD
:100E3000004C40F2FF7515EA11541DBF15EA135717
:100E4000AC42AF4239E0E41923EA455343F480133E
:100E5000C90241F0004141EA505EC7021100A7FB00
:100E6000020200284FF00000EEFB01204FF00001CD
:100E7000E3FB072118BF42F001024018002149415D
:100E8000E3FB0E01A4F580640F0302D2520040413F
:100E9000494154F101046CDD470872F1004250F100
:100EA000000051EB0451A1F580115CBF41EA0C0137
:100EB000B0BD4CEA05510020B0BD05EA1357AC4265
:100EC00014BFAF4241E050EA410E1CBF52EA430E4C
:100ED00002E061460020B0BD24423C441BD15FEAE1
:100EE000070EF6D0090302BF01460020AEF1140E32
:100EF000B1FA81F7AEEB070401FA07FE0C37C7F130
:100F0000200100FA07F7C8404EEA000E23EA4553D5
:100F100043F48013A2E733F00043B3FA83F704BF2E
:100F2000B2FA82FE77440B3FE41BB7F1200E2FBFCD
:100F300002FA0EF3BB40C7F1200E22FA0EFE38BFB4
:100F400043EA0E03BA40641C82E750EA410E14BF24
:100F500052EA430E6FF000014FF4001717EB430FF6
:100F60008ABF194617EB410FB5E74CEA055100203F
:100F7000B0BDD4F10104B4F120070FDAC4F12007A9
:100F8000520828BF42F0010210FA07F501FA07F7EC
:100F9000E1BF2A43E0403843E1400FE0352C98DCC4
:100FA000C7F1200452EA400220FA07F218BF42F0CB
:100FB000010231FA07F0A1400A43002172F1004218
:100FC00050F1000051EB0C01B0BD704770B44FF010
:100FD000004591EA030C44BF6B4000F0B1B800BF7C
:100FE000841A71EB030603D2001BB141121973413D
:100FF0004FF4001C1CEB410F34BF7CEB430443E077
:101000000C0DA4EB1356352E50DC45EAC323DB0A46
:1010100045EAC121C912B6F120050DDD63FA05F6D6
:10102000EB4086EA0305124218BF45F00105C018DF
:1010300051F100010CD213E062FA06F5F24055407E
:10104000F3415A40B340F3405A408018594107D306
:1010500049085FEA30005FEA350528BF45F0010521
:1010600001F58011420875F1004250F1000041EB9A
:10107000045170BC4FF4001C1CEB410F38BF70478B
:101080000020090D090570471CEB410F10D252EAF0
:1010900043060BD0BCEB410F05D80C0DAB43661ECD
:1010A000342EB5DD02E0AB438018594170BC704767
:1010B00070BC7047F446400D40EAC120490006D29A
:1010C00000F00EF8004248BF6FF00040604700F0AB
:1010D00007F84FF0004188428CBF08464042604705
:1010E00040F00040490DA1F58061491C05D4D1F1C3
:1010F0001F0154BFC840C01770474FF00000704731
:10110000010040F10780F446404200F003F851F03E
:101110000041604709D0B0FA80F18840C91CC1F590
:101120008461090501EBD0214005704770B44FF090
:10113000004591EA030F44BF6B40FFF751BF00BF6A
:10114000841A71EB030604D26E40001BB1411219E0
:1011500073414FF4001C1CEB410F34BF7CEB430682
:1011600084E00C0DA4EB1356362E7DDC012E43DCFF
:1011700045EAC32343EA525312BFD20292025B08EC
:10118000240545EAC12141EA5051D2EBC0209941E2
:1011900025D407D1B0FA80F610FA06F164D0002009
:1011A000203608E0B1FA81F6B140C6F1200220FAFB
:1011B00002F21143B0404FEAF474B4EB465434F0F9
:1011C00001064FEA74040AD8D6F50016760D04F02D
:1011D0000044F04061FA06F25040F1404840C00A35
:1011E00040EA415021F0004128BF5FEA500550F12C
:1011F000000044EBD12137E045EAC323DB0A45EA8E
:10120000C121C90AB6F120050EDD42EA0242120CE4
:10121000C5F1200603FA06F6EB4042EA06056D42E8
:10122000984161F100010DE062FA06F5F240554087
:1012300063FA06FC82EA0C02F3405A406D42904188
:1012400061EB030111F4801F05D1641E620502D019
:101250006D004041494121F48011430875F100437C
:1012600050F1000041EB045170BC70471CEB410F82
:1012700015D223F0004352EA43060BD04FEA4C0C40
:10128000BCEB410F04D80C0D661E342EB7DDEBE726
:10129000801A994150EA410608BF0021E4E708BFDF
:1012A0001CEB430F28BF6FF00001DDE7F0B540F203
:1012B000FF7581EA030C0CF0004C15EA11541DBFB8
:1012C00015EA1357AC42AF42E5E0BC41C1F313014C
:1012D000C3F31303801A994143F4801304D2641EAC
:1012E0004000494180185941C90241EA5051B1FBBF
:1012F000F3F603FB1611A2FB0675D7EBC020A9413C
:1013000002D2761E80185941C90241EA5051B1FB00
:10131000F3FE03FB1E11A2FB0E75D7EBC020A94103
:1013200003D2AEF1010E80185941890241EA905171
:10133000760546EA8E2EB1FBF3F603FB1611A2FBEF
:101340000675D7EB8020A94102D2761E801859413C
:10135000C90241EA50514EEA060EB1FBF3F603FB17
:101360001611A2FB0675D7EBC020A94102D2761E4A
:1013700080185941C90241EA5051B1FBF3F703FB10
:101380001711A2FB0735D3EBC020A94167F1000775
:101390000CBF004247F0010766F3D5274FEA1E3124
:1013A000B80814F5806412DDBD0775F1004250EBFA
:1013B0000E5051EB045111F5801F5CBF41EA0C0146
:1013C000F0BD4CF07F6141F0E0410020F0BDBD0771
:1013D0006D0840EA0E5041F48011D4F10104B4F1DB
:1013E00020060ADAC4F120060200E04001FA06F302
:1013F000E1401843B24015430EE0342C13DCC6F133
:10140000200445EA40056D0820FA06F2154321FA4A
:1014100006F0A1400D43002175F1004250F100009B
:1014200051EB0C01F0BD00205FEA0C01F0BDCFB91B
:1014300092185B41B3FA83F704BFB2FA82F6BF1980
:101440000B3FB7F120062FBF02FA06F3BB40C7F1EE
:10145000200622FA06F638BF3343BA401CB1E4191D
:10146000641E33E77F4231F00041B1FA81F404BFDA
:10147000B0FA80F6A4190B3CB4F120062FBF00FA95
:1014800006F1A140C4F1200620FA06F638BF314328
:10149000A0403C1B1AE7AC421ABF05EA1357AF4203
:1014A00012E050EA41061CBF52EA4306BFE750EA89
:1014B0004107304661461CBF41EA0551F0BD52EA82
:1014C000430C08BFC143F0BD00204FF4001616EBDB
:1014D000410F98BF16EB430F08BF16EB410F24BF17
:1014E000C14305E016EB430F0CBF61464CEA0551C2
:1014F000F0BD000030B504460D461A481A49224690
:101500002B46FFF791FC194A194BFFF75FFD224666
:101510002B46FFF789FC174A174BFFF757FD22466A
:101520002B46FFF781FC154A154BFFF74FFD22466E
:101530002B46FFF779FC134A134BFFF747FD224672
:101540002B46FFF771FC114A114BFFF73FFD224676
:101550002B46FFF769FC0F4A0F4BBDE83040FFF701
:1015600035BD0000F7DE29BFD8F8C23FF4B3FECC8A
:101570001A99C33F62CB68D96F46C73FC6C912DA12
:10158000C471CC3F4AE98A942449D23FF75F9799C6
:101590009999D93FBC5555555555E53F2DE9F04D25
:1015A00084B0064614461D46D6E90001CDE9000187
:1015B000DDE90001C1F30A5340F2FF721F46934276
:1015C0000AD013B14FF0FF370CE0090350EA113095
:1015D00008D06FF0010705E0090350EA113014BF8D
:1015E000022701272046C5F30A5393420BD013B1BB
:1015F0004FF0FF300DE0290350EA11300CBF0020FE
:101600006FF0010005E0290350EA113014BF0220F9
:101610000120002F06D5002840D4022806D1C6E9B3
:10162000004506E1022FF8D1022002E150B9DDE9C0
:1016300000010022804BFFF79DFB0FD0C6E900455B
:101640000020F6E0012815D1DDE9000100227B4BE6
:10165000FFF790FB18BFC6E9004542D1FFF79AFBA0
:10166000212101604FF0FF306FF00041C6E9000119
:101670000220DEE01FB9C6E900450C99C7E0DDE9AC
:10168000000100226C4BFFF775FB0ED12046294666
:10169000FFF7CAFBC6E900010120CAE0DDE900014D
:1016A0000022674BFFF7A4FB08D2002320462946FF
:1016B000FFF7BAFBC6E900010020BAE0DDE900014E
:1016C0000122604BFFF76CFB0DD800225A4B2046DD
:1016D0002946FFF7A9FBC6E90001FFF75BFB2221C2
:1016E00001600120A5E0DDE90001574A574BFFF7F3
:1016F0009BFB00220023FFF77BFB34BF544B554B71
:10170000FFF764FCFFF7D6FC0290FFF7F9FC824676
:101710008B464FF07842504BFFF786FB02460B4654
:10172000DDE90001FFF702FD0746884650465946AD
:101730004A4A4B4BFFF778FB02460B463846414678
:10174000FFF7F4FC82468B466FF00102454BFFF732
:1017500027FB07D80022444BFFF74AFB3CBF20463B
:1017600029464FD352465B46FFF75EFB0746884645
:101770003E4A3F4BFFF758FB3E4A3F4BFFF726FCE4
:101780003A464346FFF750FBCDE900013B4A3C4B4C
:1017900038464146FFF748FB3A4A3B4BFFF716FCF9
:1017A0003A464346FFF740FB00222A4BFFF70EFC68
:1017B00052465B46FFF738FB82468B46DDE9000167
:1017C00052465B46FFF702FC02460B4600202F49BB
:1017D000FFF7FCFB07468846DDE9000152465B4601
:1017E000FFF7A4FC0022294BFFF7F0FB02460B4653
:1017F00038464146FFF75AFD02460B462046294629
:10180000FFF712FBC6E9000102980C99091830464F
:1018100000F040F8070002D0012805D008E0FFF7EB
:10182000B9FA2221016003E0FFF7B4FA2221016036
:10183000384604B0BDE8F08D0000F07F0000F0FFF6
:1018400000C89CC000C89C40FE822B654715F73F2E
:101850000000E0BF0000E03F422EE63FF2E4D5BCCE
:10186000E7E84B3EFFFF8FBC0000903C112E5781F4
:10187000A03F503F5843128C8F71BC3F4BE8A541AD
:10188000B752013F0BBDF3DAE8708C3F0000F03F28
:101890007047000070B504460D466068C0F30A50FA
:1018A00040F2FF72904207D16068000304BF2068D5
:1018B000002818D0022070BD010004D12046FFF797
:1018C000F7F9012867DA012D0FDB40F2FF71091AE1
:1018D0008D420AD36068002847BF00202F490020AE
:1018E0002F49C4E90001012070BD4142A94261684D
:1018F00006DA2C4A1140401941EA0050606053E07A
:1019000001F0004162681203120B42F4801262601F
:10191000401E451905F13500352803D361600020CC
:10192000206070BD002215F11F0F05DA20352268F6
:101930006068206000206060684213D0521E9241AF
:10194000D243C0F1200325689D4055EAD272256834
:10195000C540666806FA03F32B432360636823FAE5
:1019600000F06060606808436060B2F1004F03D827
:101970000BD12078C00708D52068401C2060206863
:1019800018B96068401C60600EE06068884204BF5F
:1019900020680028F8D1002070BD00000000F0FF92
:1019A0000000F07FFFFF0F804FF0FF3070BD0000A0
:1019B000DFF820130A6842F480520A600A6822F4B1
:1019C00000420A600822521E03060B684CBF43F413
:1019D000803323F480330B600B6843F400430B60C7
:1019E00000BF0B68400023F400430B60002AEAD1DB
:1019F00070470000DFF8DC120A6822F480520A60A7
:101A00000A6822F400420A600822521E03060B688C
:101A10004CBF43F4803323F480330B600B6843F4F2
:101A200000430B6000BF0B68400023F400430B60D1
:101A3000002AEAD1704710B50446A1F15000C0B2A7
:101A4000FFF7D8FF200940F01000FFF7D3FF04F0A4
:101A50000F00BDE8104040F00100CBE770B5044630
:101A60000025A5F15000C0B2FFF7C4FF0120FFF729
:101A7000C1FF1020FFF7BEFF80262046FFF798FF2A
:101A8000761EFAD16D1C082DEBD370BD38B500243D
:101A9000A4F15000C0B2FFF7ADFF0120FFF7AAFF8D
:101AA0001020FFF7A7FF80250020FFF781FF6D1EA4
:101AB000FAD1641C082CEBD331BD08B1401EFDD116
:101AC000704710B5DFF80C42002301220C2120469C
:101AD00000F016FA002301220D21204600F010FA32
:101AE000002301220F21204600F00AFA00230122E0
:101AF0001021204600F004FA206840F400402060E5
:101B0000206820F4005020603220FFF7D6FF2068C4
:101B100040F400502060AE20FFF76CFF0020FFF77C
:101B200069FF1020FFF766FF4020FFF763FF812069
:101B3000FFF760FFC820FFF75DFFA120FFF75AFF06
:101B4000C820FFF757FFA620FFF754FFD320FFF769
:101B500051FF0020FFF74EFFD520FFF74BFF8020FD
:101B6000FFF748FFD920FFF745FFF120FFF742FFBD
:101B7000DA20FFF73FFF1220FFF73CFFDB20FFF7E3
:101B800039FF4020FFF736FF2020FFF733FF00200A
:101B9000FFF730FF8D20FFF72DFF1420FFF72AFFFE
:101BA000A420FFF727FFA620FFF724FFAF20FFF7B1
:101BB00021FF0020FFF752FFBDE810400021002068
:101BC00039E72DE9F84307468846914600250FF28C
:101BD000081624E02038FFB2C4B27F2F24BF0027AC
:101BE00008F101085FFA88F13846FFF724FF04EB9B
:101BF000440040008419805DFFF7DAFE6078FFF74B
:101C0000D7FEA078FFF7D4FEE078FFF7D1FE207969
:101C1000FFF7CEFE6079FFF7CBFEBF1D6D1CEDB266
:101C200015F809000028D5D1BDE8F183F0B583B0DF
:101C300000238DF805300A23B2FBF3F404EB84068D
:101C4000A2EB460530358DF80450B4FBF3F505EBF7
:101C50008506A4EB46046426B2FBF6F6B6FBF3F762
:101C600007EB8707A6EB47064FF47A77B2FBF7F747
:101C7000B7FBF3FC0CEB8C0E42F2107CB2FBFCF2D7
:101C8000B2FBF3F303EB8303A2EB430230328DF894
:101C900000209DF80020A7EB4E07303400AD303611
:101CA0003037EC70AE706F70302A01BF20228DF893
:101CB0000020FFB2302F07D1F6B26A70302E01BF7C
:101CC000AA70E4B2302CEA7000AAFFF77AFF03B0E2
:101CD000F0BD000000F00F40000000000000000018
:101CE000002F000000000700070000147F147F147D
:101CF00000242A7F2A120062640813230036495503
:101D0000225000000503000000001C2241000000DA
:101D100041221C000014083E08140008083E080870
:101D2000000000A0600000080808080800006060CB
:101D30000000002010080402003E5149453E00000A
:101D4000427F4000004261514946002141454B31EC
:101D5000001814127F10002745454539003C4A49B8
:101D6000493000017109050300364949493600062A
:101D70004949291E00003636000000005636000092
:101D8000000814224100001414141414000041220D
:101D9000140800020151090600324959513E007CE5
:101DA0001211127C007F49494936003E41414122CF
:101DB000007F4141221C007F49494941007F0909B8
:101DC0000901003E4149497A007F0808087F000068
:101DD000417F4100002040413F01007F0814224123
:101DE000007F40404040007F020C027F007F0408DB
:101DF000107F003E4141413E007F09090906003E37
:101E00004151215E007F091929460046494949315F
:101E10000001017F0101003F4040403F001F204082
:101E2000201F003F4038403F006314081463000740
:101E30000870080700615149454300007F41410097
:101E400000552A552A55000041417F000004020137
:101E50000204004040404040000001020400002015
:101E600054545478007F4844443800384444442053
:101E700000384444487F00385454541800087E0900
:101E800001020018A4A4A47C007F080404780000C8
:101E9000447D4000004080847D00007F1028440085
:101EA0000000417F4000007C04180478007C080496
:101EB000047800384444443800FC242424180018D2
:101EC000242418FC007C08040408004854545420BE
:101ED00000043F444020003C4040207C001C204047
:101EE000201C003C4030403C004428102844001C8A
:101EF000A0A0A07C004464544C4414141414141482
:101F000070B4464C464E256845F478552560851BCF
:101F100009D0403D09D0403D09D0403D09D0403D69
:101F200008BF404C06E0404C04E0404C02E0404C0E
:101F300000E0404C4FF4807544F821500124012A00
:101F400004FA01F1426909D10A434261012B026896
:101F50000CBF114322EA0101016002E022EA010103
:101F6000416170BC70470123012A03FA01F1026844
:101F70000CBF114322EA010101607047026801238E
:101F800003FA01F15140016070472B4A411152F8A8
:101F9000211000F01F00096921FA00F000F0010093
:101FA0007047264826E010B5254C2068C00207D5AA
:101FB0002068002140F480102060002000F048F8E4
:101FC0002068800207D52068002140F400102060BE
:101FD000012000F03DF82068400209D5206800216A
:101FE00040F480002060BDE81040022000F030B8CE
:101FF00010BD14480168C90703D5016841F001010B
:1020000001600168890703D5016841F002010160A0
:1020100070470D48EEE70D48ECE7000038800440BB
:1020200000F00F4000D004400090044000A00440A5
:1020300000B0044000C004401804FF1FA0900440FA
:10204000A0A00440A0B00440A0C00440A0D0044020
:10205000042800D9704780B5DFE800F003192F4449
:102060004C0031B9BDE8084000220F214448FFF779
:102070007ABF012902BF01220F21414860D0022905
:1020800076D1BDE804400F213D48FFF777BF31B955
:10209000BDE80840002211213748FFF764BF01293D
:1020A00002BF0122112134484AD0022960D1BDE883
:1020B000044011213048FFF761BF29B9BDE808404D
:1020C00000222C48FFF74FBF012902BF0122002147
:1020D000284835D002294BD1BDE8044000212548CD
:1020E000FFF74CBF09B9002228E0012925D00229B9
:1020F0003ED137E081B900220F212148FFF733FF9D
:10210000002200211B48FFF72EFF002211211A4850
:10211000FFF729FF002211E0012915D101220F212B
:102120001748FFF720FF012200211248FFF71BFF8D
:10213000012211211048FFF716FF01221A210F4832
:10214000BDE80840FFF70FBF022911D10F210C484D
:10215000FFF714FF00210748FFF710FF1121064881
:10216000FFF70CFFBDE804401A210448FFF706BF43
:1021700001BD000080F00F4000F00F4000F10F4063
:10218000C0F00F40F0B405283DD8DFE800F0030AA6
:10219000151C2732A44AD36843F48063D360A34A52
:1021A0002DE0A14AD36843F40063D360A04A4FF402
:1021B00040731360536026E09B4AD36843F4805316
:1021C000D3609C4A1BE0984AD36843F40053D36021
:1021D000974A4FF440735363936314E0924A136831
:1021E00043F480631360944A4FF440735364136460
:1021F00009E08D4A136843F4006313608E4A4FF47C
:102200004073536013608D4B024653F82240002800
:10221000E57805F0F305E57053F82240A578A57040
:1022200016BF0128864887480078874C60430C0118
:10223000B0FBF4F4A4B2B4F5005F28BF41F6FF741C
:1022400053F82250260A2F78B0FBF1F0A0EB0410CF
:1022500066F304072F7053F822506C7053F8225025
:10226000A97A60F30401A97253F82200017C41F0BD
:102270008801017453F82200C17841F02C01C1702B
:10228000F0BC70476D4951F8202013799B06FCD5AE
:10229000D0797047694A52F8203093F804C05FEA59
:1022A0000C6CFAD5D971704738B504460D4604E078
:1022B00015F8011B2046FFF7EDFF28780028F7D11D
:1022C00031BD5E4951F820104000CA782D3042F0EF
:1022D0002002CA7000F015B9584951F8201040008A
:1022E000CA782D3002F0DF02CA7000F034B97047AE
:1022F0002DE9F04186B00120FFF7EEFF00AE01208E
:10230000FFF7C0FF8DF800000120FFF7BBFF074675
:1023100077700120FFF7B6FF0446B4700120FFF785
:10232000B1FF0546F5700120FFF7ACFF804686F847
:1023300004800120FFF7A6FF70719DF800100D29A1
:1023400057D031290CD032290ED0332910D044294E
:1023500037D0492929D050291BD054293DD05BE0E2
:102360003A480021017057E038480121017053E0DC
:10237000364800210170642111FB04F14FF47A709A
:1023800010FB071005EB850100EB410050FA88F0C7
:102390003EE004EB84016420490010FB07102C4947
:1023A00050FA85F008182B4935E004EB84016420CD
:1023B000490010FB0710264950FA85F008182649F5
:1023C00029E004EB84016420490010FB0710204938
:1023D00050FA85F0081821491DE004EB84016420BF
:1023E000490010FB07101A4950FA85F008181C49DB
:1023F00011E00A2F10D1642212FB05F24FF47A711A
:1024000011FB042108EB880201EB420151FA80F034
:1024100014490818144908600120FFF752FF06B05C
:10242000BDE8F0810000000028800440389004409E
:102430000CB0044008C0044020D004405804FF1FE2
:102440000C05FF1F0D05FF1F40420F000E05FF1F6B
:1024500030EBFFFF4004FF1F4404FF1F4804FF1F31
:102460004C04FF1FB02FFFFF5004FF1F00B599B0B1
:102470000220FFF707FF02460FF26C0100A800F0F0
:1024800097F800A90220FFF70FFF19B000BD00B5B3
:1024900085B00320FFF7F6FE02460FF24C0100A8BC
:1024A00000F086F800A903200CE000B585B00420F8
:1024B000FFF7E8FE02460FF2300100A800F078F8BE
:1024C00000A90420FFF7F0FE05B000BD00B585B0FF
:1024D0000520FFF7D7FE02460FF20C0100A800F01E
:1024E00067F800A90520EDE7C4E3B7A2CBCDB5C4DA
:1024F000CAFDBEDDCEAAA3BA25630A00284908603A
:1025000070475C28A8BF5B20011100EBD161491125
:1025100003D0022915D00AD37047A0EB4110012245
:10252000204902FA00F008601F4908607047A0EBDC
:10253000411001221B4902FA00F048601A49486024
:102540007047A0EB41100122164902FA00F08860A2
:102550001549886070475C28A8BF5B20011100EB1B
:10256000D161491103D0022911D008D37047A0EBE3
:10257000411001220D4902FA00F008607047A0EBFB
:1025800041100122094902FA00F048607047A0EBAF
:1025900041100122054902FA00F0886070470000EE
:1025A00008ED00E080E200E000E100E080E100E012
:1025B0000CB41CB5044604A80190009401AB0A4673
:1025C00000A907487844183000F00CF80099002260
:1025D0000A7000285CBF0098001B16BC5DF80CFB5D
:1025E0003FE8FFFF2DE9F04784B081468846144656
:1025F0001E460DF1000A04E014F8011B4046C847CE
:102600008046207810B904B0BDE8F0872528F3D1C2
:10261000641C14F8015B252D6FD0582D51D0632D0B
:102620000ED0642D18BF692D10D06F2D49D0702D9C
:102630004CD0732D50D0752D18BF782D41D0E0E7C8
:102640003068011D31600168C9B2D7E73068011DEB
:1026500031600768002F03D52D214046C8478046CA
:102660006F2D08BF082105D045F02000782814BF41
:102670000A2110210B203A46642D02D1002F48BFB9
:102680005242431E1846B2FBF1FC01FB1C223032C1
:10269000D2B23A2A24BFA5F1510E724403F80A209F
:1026A00062460AB10128ECDAC0F10B0500A947180F
:1026B0004046002DA4D017F8011BC8476D1EFAD163
:1026C0009EE73068011D31600768C9E73068011D69
:1026D000316007687825C3E73068011D31600568FF
:1026E000284600F00DF807464046002F88D015F820
:1026F000011BC8477F1EFAD182E725217EE7000033
:1027000000F10103810704D010F8011B89B1810792
:10271000FAD10268B2F10131914311F0803F04BF58
:1027200050F8042FF6E710F8011B11B110F8011B47
:10273000FBE7C01A7047000018B4C14AC14C1368C7
:1027400043F400031360C04A13689B089B001360A6
:102750002478BE4B020161434FF47A746143D15037
:10276000D118CA68443042F00102CA608A6842F057
:1027700003028A6012BCFFF7C4BE2DE9F84FB448CB
:10278000B44C016804F2680641F001010160B069CF
:10279000401C0228A8BF0020B06120B1012800F031
:1027A000C380BDE8F18F25461A27DFF8AC820022EE
:1027B00013214046FFF7D7FB082000F06DF90122F6
:1027C00013214046FFF7CFFB072000F065F91120E9
:1027D000FFF7DBFB45F8040B7F1EE8D1002504F270
:1027E00064072846FEF78CFC02460B4600204FF09B
:1027F0008041FEF745F882468B467069FEF780FC03
:102800008046894657F80409FEF77AFC02460B46D3
:1028100050465946FEF708FB42464B46FEF7D6FBAC
:10282000FEF748FC6D1C70610E2DDADB014600E0FE
:1028300041404008FCD1F1610846642590FBF5F168
:1028400005FB1100A0F1800184F86810C9B20120D5
:10285000FFF720FDF06990FBF5F084F8680094F82C
:1028600068100120FFF716FD7C4F386990FBF5F1E9
:1028700005FB1100A0F1800184F86810C9B20120A5
:10288000FFF708FD386990FBF5F084F8680094F8CC
:1028900068100120FFF7FEFCF26905213220FFF7E6
:1028A000C5F93869F169421A726200213220FFF7D6
:1028B000BDF9D6F82480F868D6E902454045A8BF9E
:1028C00018EB000F20DB204629460122644BFEF75F
:1028D0008FFA13D20022634BFEF762FA10D84046FB
:1028E000FEF70EFC604A614BFEF79EFA22462B462D
:1028F000FEF76CFB04460D46786806E0002400E015
:1029000000241D46786800E000203061C6E90245D9
:10291000D6E90201FEF7CEFB3062BDE8F84F024671
:1029200002213220FFF782B9746AB06A201AFEF7DA
:10293000E7FB4D4A4D4BFEF7B9FCFEF7BBFB474F9B
:1029400080463868C6F830806043B462FEF7D8FB32
:1029500004460D463069FEF7D3FB02460B46D6E926
:102960000201FEF761FA22462B46FEF72FFB0446D2
:10297000B8680D4600FB08F0FEF7C2FB22462B4666
:10298000FEF724FBFEF796FBB0F5006FA8BF40F200
:10299000FF7003DA36498842B8BF084600F5006187
:1029A000F062718089B2002000F0C3F800207061ED
:1029B000BDE8F44F07212F48FFF7E0BA10B52E48C5
:1029C000264C016841F0010101602C492069097819
:1029D000012906D1616919B1012902D1401C00E029
:1029E000401E2061024604213220FFF71FF92069B2
:1029F00041F270718842A8BF002003DAB0F57A6F07
:102A000001DC01206061626903213220FFF70EF9C9
:102A1000226806210F20FFF709F96268062132209B
:102A2000FFF704F9A26806215020FFF7FFF8E268DB
:102A3000BDE8104007215020FFF7F8B8104825E006
:102A40003C8004400D05FF1F0070034000710340EF
:102A50000C7103407004FF1F00F00F404004FF1F83
:102A600000005940000059C07B14AE47E17A743F22
:102A700001F8FFFFC0F00F401C7103400E05FF1F5F
:102A80002C710340004801E03C710340016841F0B3
:102A90000101016070470000F8B116490A7842F060
:102AA00080020A7011490A6842F001020A60104966
:102AB00000220A60322250431030021100EBD26033
:102AC00040118860232048600120086008680006E3
:102AD000FCD5086840084000086070470448016859
:102AE00041F0800101607047000000003880044020
:102AF000000004400050064013494FF480530A6818
:102B000083401A430A601149E02351F8202082F8DB
:102B1000213051F82020002382F8223051F8202063
:102B200082F8233051F82020537051F820000370B0
:102B30007047064A4FEA112C52F8203083F801C042
:102B400052F82000017070472C8004401004FF1FD1
:102B500070B43E4A0028136843F4785313604ED093
:102B600030281ED032281FD0602820D0642821D0E1
:102B70006E2822D0782822D07D2823D0822824D005
:102B80008C2825D0962826D0A02827D0AA2828D05F
:102B9000B42829D0C8282AD0E1282BD0FA282CD054
:102BA0002DE0182400212AE01824012127E0182410
:102BB000182124E018241A2121E018241EE01324EF
:102BC00018211CE013241A2119E013241C2116E0FB
:102BD0000E24122113E00E24152110E00E241821DA
:102BE0000DE00E241B210AE00E241E2107E00C2418
:102BF0001C2104E00B241E2101E00A241F21144B98
:102C000080251D7004F01F041C71124C01F01F017F
:102C10002568266841F0400146F47F0626600E4E86
:102C2000D6602560597199798906FCD5997949064C
:102C3000FCD5002119709979C1F381010329FAD1DA
:102C4000064908704008487070BC704738800440DE
:102C50000040064000F00140000027010C05FF1F66
:102C600010B572B6C820FFF773FF254C0023012270
:102C700013212046FFF744F90023002211212046AA
:102C8000FFF73EF90023012207211E48FFF738F91C
:102C9000FEF717FFFEF7FAFE00210FF26C0208465E
:102CA000FEF78FFF0FF2680205210020FEF789FF73
:102CB0000FF2640203210020FEF783FF0FF260028F
:102CC00004210020FEF77DFF0FF25C0202210020AC
:102CD000FEF777FF0020FFF70FFF01210020FFF72D
:102CE0002BFD4FF4E1310120FFF74CFA0120FFF7F3
:102CF000E8FA05210120FFF71FFD62B6FEE700009C
:102D000000F00F40C0F00F404552524F523A0000C1
:102D1000506F73543A0000004449523A00000000DA
:102D2000496E7075743A0000496E74543A000000A0
:102D300080B500F049F800F004F8BDE80140FFF765
:102D40008FBF10B51649174C8C4204D04FF48252F5
:102D5000204600F051F82046FFF7D0FB1249134AF5
:102D60001348521A05D011F8013B521E00F8013BDE
:102D7000F9D110481049091A05D0491E002200F85F
:102D8000012B0029F9D10D490D4A0E48521A05D0E0
:102D900011F8013B521E00F8013BF9D110BD0000B3
:102DA000000000000000FF1F502E0000B02E0000A9
:102DB0001004FF1F7004FF1F1005FF1F000000001C
:102DC000000000001005FF1F80B500F007F808485C
:102DD0004FF6FE7201881140018001BD72B60548B0
:102DE0004CF2205101804DF62811018062B67047E7
:102DF000002005400E200540103A07D330B4B1E85A
:102E00003810103AA0E83810F9D230BC530724BF6C
:102E1000B1E80810A0E8081044BF51F8043B40F89E
:102E2000043BD20724BF31F8022B20F8022B44BF09
:102E30000B7803707047083A07D3B1E80810083AD6
:102E400040F8043B40F804CBF7D25307E4E7000016
:102E500000C00C4000D00C4000F00F4040F00F408C
:102E600080F00F40C0F00F4000F10F400090044090
:102E700000A0044000B0044000C0044000D0044062
:102E80003C00000064000000280000001400000066
:102E9000881300000100000000A0064000B00640BA
:102EA00000C0064000D0064000A00E4000B00E401A
:102EB00010B5084979441C31074C7C441A34A142AE
:102EC00006D0081D0A68511888470146A142F8D16A
:102ED00010BD00BF080000001C000000F3DEFFFF73
:102EE000A00000007004FF1F040000001005FF1F79
:102EF00000000000044800E004480168002101606F
:102F000070470348F9E700005080034050900340A9
:102F100050800B400120C046002801D0FFF7C8FFB9
:102F20000020FFF79DFE00F000F800F001B800005F
:102F30000746384600F002F8FBE700000149182078
:102F4000ABBEFBE726000200C046C046C046C046F6
:042F5000FFF7E0FFA8
:0400000500002F497F
:00000001FF
